{
    "error_code": 0,
    "data": [
        {
            "hash": "0xbc3b3fc58270f2d60e0fce0f5633acb73f3420caf8434f89c2380b26d7795429",
            "blockNumber": 17156372,
            "timestamp": 1629107816,
            "transactionIndex": 0,
            "from": "0xc9fA462De139b7eb98b36422a54548BFD1de8350",
            "to": "0xD6570023e894E773062860681da36c3f9e0215bA",
            "gasPrice": "100000000000",
            "gasLimit": "60000",
            "value": 16,
            "nonce": 2,
            "data": "0x",
            "r": "0x25ee1fe385c2aab3f8d64a890a888a1ae9c349bbb2934a483d882ea3c7fbcff1",
            "s": "0x63a791e4d9e5992ce3326fa8815337ffe0750cce1d9145af4c5585b3b7b31b64",
            "v": 27,
            "creates": null,
            "raw": "0xf86c0285174876e80082ea6094d6570023e894e773062860681da36c3f9e0215ba88de0b6b3a76400000801ba025ee1fe385c2aab3f8d64a890a888a1ae9c349bbb2934a483d882ea3c7fbcff1a063a791e4d9e5992ce3326fa8815337ffe0750cce1d9145af4c5585b3b7b31b64",
            "contractAddress": null,
            "gasUsed": "21000",
            "cumulativeGasUsed": "21000",
            "status": 1,
            "logs": []
        }
    ]
}