{
    "error_code": 0,
    "data": [
        {
            "hash": "0x82690e0cb2e3176639f7349d381065f810ef008da51cde0de3cf89148b2b0460",
            "blockNumber": 16946674,
            "timestamp": 1628059326,
            "transactionIndex": 0,
            "from": "0xC4C535d44c688D8D761c72b598BF9b32b3e27feE",
            "to": "0x58474Cd9214e781dbd31F2FB41B31f3763467fd8",
            "gasPrice": "4000000000",
            "gasLimit": "1000000",
            "value": 0,
            "nonce": 1069266,
            "data": "0x2e1a7d4d00000000000000000000000000000000000000000000000000000000000bc833",
            "r": "0xdf7114856c8654c9fc46c64950bbf45bd549aed362aa10886dfeb2319e864f62",
            "s": "0x72450d932a8eed1a4e870a1e65303ee463199c07f85fd35f77ef45e53fd5aa87",
            "v": 3658,
            "creates": null,
            "raw": "0xf88d831050d284ee6b2800830f42409458474cd9214e781dbd31f2fb41b31f3763467fd880a42e1a7d4d00000000000000000000000000000000000000000000000000000000000bc833820e4aa0df7114856c8654c9fc46c64950bbf45bd549aed362aa10886dfeb2319e864f62a072450d932a8eed1a4e870a1e65303ee463199c07f85fd35f77ef45e53fd5aa87",
            "contractAddress": null,
            "gasUsed": "165780",
            "cumulativeGasUsed": "165780",
            "status": 1,
            "logs": [
                {
                    "transactionIndex": 0,
                    "blockNumber": 16946674,
                    "transactionHash": "0x82690e0cb2e3176639f7349d381065f810ef008da51cde0de3cf89148b2b0460",
                    "address": "0x64Af5553151ACe32718ca21b5E9eF8365351224A",
                    "topics": [
                        "0x7d0804d4e517f242557314141e3455d7f951c1f529383a0cbb8ebb6f904c2d0c"
                    ],
                    "data": "0x0000000000000000000000000000000000000000000000000000000000000000000000000000000000000000c4c535d44c688d8d761c72b598bf9b32b3e27fee00000000000000000000000000000000000000000000000000000000000bc8330000000000000000000000000000000000000000000000001b9de674df070000000000000000000000000000000000000000000000000000000000000000000a",
                    "logIndex": 0,
                    "blockHash": "0xe593dcb157faf08e417984c86e11e3170109c8429278fa86380873768ad92697",
                    "transactionLogIndex": 0
                },
                {
                    "transactionIndex": 0,
                    "blockNumber": 16946674,
                    "transactionHash": "0x82690e0cb2e3176639f7349d381065f810ef008da51cde0de3cf89148b2b0460",
                    "address": "0x64Af5553151ACe32718ca21b5E9eF8365351224A",
                    "topics": [
                        "0x7d0804d4e517f242557314141e3455d7f951c1f529383a0cbb8ebb6f904c2d0c"
                    ],
                    "data": "0x000000000000000000000000c4c535d44c688d8d761c72b598bf9b32b3e27fee0000000000000000000000005ec00464ad258e8351680589794496d8e369657b00000000000000000000000000000000000000000000000000000000000bc8330000000000000000000000000000000000000000000000000011c37937e08000000000000000000000000000000000000000000000000000000000000000000b",
                    "logIndex": 1,
                    "blockHash": "0xe593dcb157faf08e417984c86e11e3170109c8429278fa86380873768ad92697",
                    "transactionLogIndex": 1
                },
                {
                    "transactionIndex": 0,
                    "blockNumber": 16946674,
                    "transactionHash": "0x82690e0cb2e3176639f7349d381065f810ef008da51cde0de3cf89148b2b0460",
                    "address": "0x64Af5553151ACe32718ca21b5E9eF8365351224A",
                    "topics": [
                        "0x7d0804d4e517f242557314141e3455d7f951c1f529383a0cbb8ebb6f904c2d0c"
                    ],
                    "data": "0x000000000000000000000000c4c535d44c688d8d761c72b598bf9b32b3e27fee000000000000000000000000260ecc08cb4bcfa7f4af89701649537315a6b9f300000000000000000000000000000000000000000000000000000000000bc83300000000000000000000000000000000000000000000000000093cafac6a8000000000000000000000000000000000000000000000000000000000000000000c",
                    "logIndex": 2,
                    "blockHash": "0xe593dcb157faf08e417984c86e11e3170109c8429278fa86380873768ad92697",
                    "transactionLogIndex": 2
                },
                {
                    "transactionIndex": 0,
                    "blockNumber": 16946674,
                    "transactionHash": "0x82690e0cb2e3176639f7349d381065f810ef008da51cde0de3cf89148b2b0460",
                    "address": "0x64Af5553151ACe32718ca21b5E9eF8365351224A",
                    "topics": [
                        "0x7d0804d4e517f242557314141e3455d7f951c1f529383a0cbb8ebb6f904c2d0c"
                    ],
                    "data": "0x000000000000000000000000c4c535d44c688d8d761c72b598bf9b32b3e27fee000000000000000000000000c7867fb0b343216b11f9dda205b53077364cc11600000000000000000000000000000000000000000000000000000000000bc833000000000000000000000000000000000000000000000000000886c98b760000000000000000000000000000000000000000000000000000000000000000000d",
                    "logIndex": 3,
                    "blockHash": "0xe593dcb157faf08e417984c86e11e3170109c8429278fa86380873768ad92697",
                    "transactionLogIndex": 3
                }
            ]
        }
    ]
}