{
    "txid": "0c57809bdf66cb2ac2acbecc99651a2b75b7c1c3c720be7e200bdf6f61875490",
    "version": 1,
    "size": 257,
    "locktime": 0,
    "vin": [
        {
            "txid": "58eaa0235743a35670754ba7d6c0daef12762fc3200d872fcbdfbd200b489b84",
            "vout": 1,
            "scriptSig": {
                "asm": "30440220060e49147411a9d11c9cf33203c2bce558743f3de9e0151e6e0b57536cf5fdb602202314ef7b50499bc3946a9a4b94ca87002523673817b3bdc11dd1415aefda266101 04038a520d330b3e6e81f91df8b9ff5766b176c6f6418cc1c17584dd5663f1fbbf8cf51cfc293d65c6a2aaf0e1e4b09784da5de85db6566d95457c091f53b63896",
                "hex": "4730440220060e49147411a9d11c9cf33203c2bce558743f3de9e0151e6e0b57536cf5fdb602202314ef7b50499bc3946a9a4b94ca87002523673817b3bdc11dd1415aefda2661014104038a520d330b3e6e81f91df8b9ff5766b176c6f6418cc1c17584dd5663f1fbbf8cf51cfc293d65c6a2aaf0e1e4b09784da5de85db6566d95457c091f53b63896"
            },
            "sequence": 4294967295
        }
    ],
    "vout": [
        {
            "value": 4792.6010217,
            "n": 0,
            "scriptPubKey": {
                "asm": "OP_DUP OP_HASH160 ad664a117b0fdedede97ca45cc38a387dc61c71c OP_EQUALVERIFY OP_CHECKSIG",
                "hex": "76a914ad664a117b0fdedede97ca45cc38a387dc61c71c88ac",
                "reqSigs": 1,
                "type": "pubkeyhash",
                "addresses": [
                    "DLwwyddHvwtY6Sv3VaSDbCkCZXKiTYEazf"
                ]
            }
        },
        {
            "value": 3313.04233,
            "n": 1,
            "scriptPubKey": {
                "asm": "OP_DUP OP_HASH160 752fe9a4927a625d4f934a6c7117f0a8cd5dac44 OP_EQUALVERIFY OP_CHECKSIG",
                "hex": "76a914752fe9a4927a625d4f934a6c7117f0a8cd5dac4488ac",
                "reqSigs": 1,
                "type": "pubkeyhash",
                "addresses": [
                    "DFpizjUNstWw2FqaeRNFBEPKm5K3zx7zH8"
                ]
            }
        }
    ],
    "hex": "0100000001849b480b20bddfcb2f870d20c32f7612efdac0d6a74b757056a3435723a0ea58010000008a4730440220060e49147411a9d11c9cf33203c2bce558743f3de9e0151e6e0b57536cf5fdb602202314ef7b50499bc3946a9a4b94ca87002523673817b3bdc11dd1415aefda2661014104038a520d330b3e6e81f91df8b9ff5766b176c6f6418cc1c17584dd5663f1fbbf8cf51cfc293d65c6a2aaf0e1e4b09784da5de85db6566d95457c091f53b63896ffffffff021ace20966f0000001976a914ad664a117b0fdedede97ca45cc38a387dc61c71c88ac286845234d0000001976a914752fe9a4927a625d4f934a6c7117f0a8cd5dac4488ac00000000",
    "blockhash": "77a7cd875849f792b8e9efa817b1cad68e39044bbd532cebc662b50c70d08a3f",
    "confirmations": 3262,
    "time": 1632509085,
    "blocktime": 1632509085
}