HTTP/1.1 200 OK
Server: openresty/1.19.3.1
Date: Wed, 14 Jul 2021 09:24:33 GMT
Content-Type: application/json
Content-Length: 7834
Connection: close

{
  "result": {
    "hash": "b01853d28488e07fa5b004ba5f9ac8096bf31c1086d20763d80923b0531c4011",
    "confirmations": 96,
    "strippedsize": 1135,
    "size": 1171,
    "weight": 4576,
    "height": 284060,
    "version": 536870912,
    "versionHex": "20000000",
    "merkleroot": "8d0ec8aaf9e4f79cba2a7818b0be2e3e90973552404cac5187a499d3b7103c56",
    "hashStateRoot": "ee1039731318c8c57d1f823aee02585ed9c0135e5372e0d9df9a3e93ab2a6c8a",
    "hashUTXORoot": "0d70b10aeafcd2b51afe2f8ba2260b38a1a280b8f4e9a900fb30e93bf0e08d83",
    "prevoutStakeHash": "da1c219eaecadc8a17db47057c72d9002c87377f8eecf8a2969607b1face21c4",
    "prevoutStakeVoutN": 1,
    "tx": [
      {
        "txid": "59fbab9fe8d6643eae170ce1d420022dc0dcaaa4485fa12c6b9e4dbbc21d7b17",
        "hash": "af568adbb0ab2066a7aca53d0997e541a25eeaba7276be1e6d044fed49e10970",
        "version": 2,
        "size": 148,
        "vsize": 121,
        "weight": 484,
        "locktime": 0,
        "vin": [
          {
            "coinbase": "039c550400",
            "sequence": 4294967295
          }
        ],
        "vout": [
          {
            "value": 0.00000000,
            "n": 0,
            "scriptPubKey": {
              "asm": "",
              "hex": "",
              "type": "nonstandard"
            }
          },
          {
            "value": 0.00000000,
            "n": 1,
            "scriptPubKey": {
              "asm": "OP_RETURN aa21a9edbaebca32a706ffa0181a677217b328a8ce70948d6b8932ea6a06a97a4884af20",
              "hex": "6a24aa21a9edbaebca32a706ffa0181a677217b328a8ce70948d6b8932ea6a06a97a4884af20",
              "type": "nulldata"
            }
          }
        ],
        "hex": "020000000001010000000000000000000000000000000000000000000000000000000000000000ffffffff05039c550400ffffffff020000000000000000000000000000000000266a24aa21a9edbaebca32a706ffa0181a677217b328a8ce70948d6b8932ea6a06a97a4884af200120000000000000000000000000000000000000000000000000000000000000000000000000"
      },
      {
        "txid": "d8139d1b21e255753b99157664838ae6559f28f6fe290821a53e3527e4bcf347",
        "hash": "d8139d1b21e255753b99157664838ae6559f28f6fe290821a53e3527e4bcf347",
        "version": 2,
        "size": 266,
        "vsize": 266,
        "weight": 1064,
        "locktime": 0,
        "vin": [
          {
            "txid": "da1c219eaecadc8a17db47057c72d9002c87377f8eecf8a2969607b1face21c4",
            "vout": 1,
            "scriptSig": {
              "asm": "3044022071ac01ad237914af2126b93700b3b3f3b3f8b8d2cb3c2340e2f9070613f7d02002200198aa96a370742682c0e568920fbbd1e63a53543ba60aea67099dc88f221311[ALL]",
              "hex": "473044022071ac01ad237914af2126b93700b3b3f3b3f8b8d2cb3c2340e2f9070613f7d02002200198aa96a370742682c0e568920fbbd1e63a53543ba60aea67099dc88f22131101"
            },
            "sequence": 4294967295
          }
        ],
        "vout": [
          {
            "value": 0.00000000,
            "n": 0,
            "scriptPubKey": {
              "asm": "",
              "hex": "",
              "type": "nonstandard"
            }
          },
          {
            "value": 791837.71025284,
            "n": 1,
            "scriptPubKey": {
              "asm": "026a3c0587bd7af7456b79c6fb70d0c72c0246c55b32c8f42448bb7157c4870f16 OP_CHECKSIG",
              "hex": "21026a3c0587bd7af7456b79c6fb70d0c72c0246c55b32c8f42448bb7157c4870f16ac",
              "type": "pubkey"
            }
          },
          {
            "value": 0.00000000,
            "n": 2,
            "scriptPubKey": {
              "asm": "4 250000 5000 1286056559 0000000000000000000000000000000000000089 OP_CALL",
              "hex": "01040390d003028813046faaa74c140000000000000000000000000000000000000089c2",
              "type": "call"
            }
          },
          {
            "value": 563.69040487,
            "n": 3,
            "scriptPubKey": {
              "asm": "4 250000 5000 1876445712 0000000000000000000000000000000000000090 OP_CALL",
              "hex": "01040390d00302881304104ad86f140000000000000000000000000000000000000090c2",
              "type": "call"
            }
          }
        ],
        "hex": "0200000001c421cefab1079696a2f8ec8e7f37872c00d9727c0547db178adccaae9e211cda0100000048473044022071ac01ad237914af2126b93700b3b3f3b3f8b8d2cb3c2340e2f9070613f7d02002200198aa96a370742682c0e568920fbbd1e63a53543ba60aea67099dc88f22131101ffffffff04000000000000000000843f8b68044800002321026a3c0587bd7af7456b79c6fb70d0c72c0246c55b32c8f42448bb7157c4870f16ac00000000000000002401040390d003028813046faaa74c140000000000000000000000000000000000000089c2674cdb1f0d0000002401040390d00302881304104ad86f140000000000000000000000000000000000000090c200000000"
      },
      {
        "txid": "dedfeaa413ae70f82e9bcdeddccb66800f4d1d7af03286ab117af7b470aa1b75",
        "hash": "dedfeaa413ae70f82e9bcdeddccb66800f4d1d7af03286ab117af7b470aa1b75",
        "version": 2,
        "size": 133,
        "vsize": 133,
        "weight": 532,
        "locktime": 0,
        "vin": [
          {
            "txid": "4d3d5e822a453fad567ff19bb2f065c7eef3b1a560577d5a25576c29d964368a",
            "vout": 0,
            "scriptSig": {
              "asm": "OP_SPEND",
              "hex": "c3"
            },
            "sequence": 4294967295
          },
          {
            "txid": "d8139d1b21e255753b99157664838ae6559f28f6fe290821a53e3527e4bcf347",
            "vout": 3,
            "scriptSig": {
              "asm": "OP_SPEND",
              "hex": "c3"
            },
            "sequence": 4294967295
          }
        ],
        "vout": [
          {
            "value": 14377980.70101339,
            "n": 0,
            "scriptPubKey": {
              "asm": "0 0 0 0 0000000000000000000000000000000000000090 OP_CALL",
              "hex": "0100010001000100140000000000000000000000000000000000000090c2",
              "type": "call"
            }
          }
        ],
        "hex": "02000000028a3664d9296c57255a7d5760a5b1f3eec765f0b29bf17f56ad3f452a825e3d4d0000000001c3ffffffff47f3bce427353ea5210829fef6289f55e68a83647615993b7555e2211b9d13d80300000001c3ffffffff015b253a73ab1b05001e0100010001000100140000000000000000000000000000000000000090c200000000"
      },
      {
        "txid": "8cda05528ec00b48fa6e5d1b8dad53df8300c4b442bf2c68ae684848a8548376",
        "hash": "8cda05528ec00b48fa6e5d1b8dad53df8300c4b442bf2c68ae684848a8548376",
        "version": 2,
        "size": 372,
        "vsize": 372,
        "weight": 1488,
        "locktime": 284058,
        "vin": [
          {
            "txid": "447a3fc3f03846c09000e788f889e512b77789cc5f99799f15208d5ef441a7cd",
            "vout": 0,
            "scriptSig": {
              "asm": "30440220161368859c32d793a96f80774e4c448f48d762f877815bba7dbe9b5d6b17d711022054eb8a86c7f334b9cd2921c08be7cbec39bc02f3a2163f67939178f1ac392567[ALL] 02135ec3faa2ad0a1254fb4b608f95b3ad0a728c25b72cd0162e268ae5ff90772e",
              "hex": "4730440220161368859c32d793a96f80774e4c448f48d762f877815bba7dbe9b5d6b17d711022054eb8a86c7f334b9cd2921c08be7cbec39bc02f3a2163f67939178f1ac392567012102135ec3faa2ad0a1254fb4b608f95b3ad0a728c25b72cd0162e268ae5ff90772e"
            },
            "sequence": 4294967294
          },
          {
            "txid": "0ee117f236dd2e027e221b0bc6c0111702d77590038cecc19c46bfc543797ac7",
            "vout": 1,
            "scriptSig": {
              "asm": "3044022006a7ca8d9feed59af188cd126a0121abf316a94c00a7eeb72e9c10e60d06353d02207678b56df783810b9867a8369a02796ce068927dc075b7c92b0ed2f7af9ca787[ALL] 03ca9f1a601a331a14059f131e558d464e2db5fd524f0de3365ede9598e5052de9",
              "hex": "473044022006a7ca8d9feed59af188cd126a0121abf316a94c00a7eeb72e9c10e60d06353d02207678b56df783810b9867a8369a02796ce068927dc075b7c92b0ed2f7af9ca787012103ca9f1a601a331a14059f131e558d464e2db5fd524f0de3365ede9598e5052de9"
            },
            "sequence": 4294967294
          }
        ],
        "vout": [
          {
            "value": 15300.00000000,
            "n": 0,
            "scriptPubKey": {
              "asm": "OP_DUP OP_HASH160 196bb2583cf486e4e50d34fef9fa932ca340d85a OP_EQUALVERIFY OP_CHECKSIG",
              "hex": "76a914196bb2583cf486e4e50d34fef9fa932ca340d85a88ac",
              "reqSigs": 1,
              "type": "pubkeyhash",
              "addresses": [
                "MADa97yGuHmrs8MiETgJjGGnmGabYL34C9"
              ]
            }
          },
          {
            "value": 1334.47999907,
            "n": 1,
            "scriptPubKey": {
              "asm": "OP_DUP OP_HASH160 5cf7be676337f205c72d4fb37551e4027e476fc9 OP_EQUALVERIFY OP_CHECKSIG",
              "hex": "76a9145cf7be676337f205c72d4fb37551e4027e476fc988ac",
              "reqSigs": 1,
              "type": "pubkeyhash",
              "addresses": [
                "MGNjBckNSPFNxWeyStpaJwuTHVkiH1nYWL"
              ]
            }
          }
        ],
        "hex": "0200000002cda741f45e8d20159f79995fcc8977b712e589f888e70090c04638f0c33f7a44000000006a4730440220161368859c32d793a96f80774e4c448f48d762f877815bba7dbe9b5d6b17d711022054eb8a86c7f334b9cd2921c08be7cbec39bc02f3a2163f67939178f1ac392567012102135ec3faa2ad0a1254fb4b608f95b3ad0a728c25b72cd0162e268ae5ff90772efeffffffc77a7943c5bf469cc1ec8c039075d7021711c0c60b1b227e022edd36f217e10e010000006a473044022006a7ca8d9feed59af188cd126a0121abf316a94c00a7eeb72e9c10e60d06353d02207678b56df783810b9867a8369a02796ce068927dc075b7c92b0ed2f7af9ca787012103ca9f1a601a331a14059f131e558d464e2db5fd524f0de3365ede9598e5052de9feffffff0200441b3b640100001976a914196bb2583cf486e4e50d34fef9fa932ca340d85a88aca3e11e121f0000001976a9145cf7be676337f205c72d4fb37551e4027e476fc988ac9a550400"
      }
    ],
    "time": 1626245328,
    "mediantime": 1626244880,
    "nonce": 0,
    "bits": "1907b698",
    "difficulty": 556820789.3699653,
    "chainwork": "0000000000000000000000000000000000000000000070d7898fdd042f1d5dae",
    "nTx": 4,
    "previousblockhash": "2b5f681cf4c714a9f3d40a4384a1a58db341c4598b14dd375ceba38a3177bae4",
    "nextblockhash": "0c4bddc12a9bc6a1c22ee230258455e6e281b397af857dcb9f50f6f164ea2a83",
    "flags": "proof-of-stake",
    "proofhash": "000032fbd31546f6a52dad210a6d27542365bf44b808133883da68fd011b9b2b",
    "modifier": "46a38c60518e0df441c341238333399eabbb0390b4aeb1be7dcd305f10af168e",
    "signature": "304402206f78364c44bce10c3958058d511d1ef0ce35b5bf0ed47ac26683ce77f597e63b02200fe4a6972d63b2686ad334de9d9de4df100fa1a587f4c831995e863d2e05ea5d"
  },
  "error": null,
  "id": "curltest"
}
