HTTP/1.1 200 OK
Server: openresty/1.19.3.1
Date: Fri, 09 Jul 2021 10:37:04 GMT
Content-Type: application/json
Content-Length: 10349
Connection: close

{
  "result": {
    "hash": "da8cd9a1f00351d85184b007911f57a973227158a2291e7f178b9b38efb82fa7",
    "confirmations": 3,
    "strippedsize": 1506,
    "size": 1542,
    "weight": 6060,
    "height": 279457,
    "version": 536870912,
    "versionHex": "20000000",
    "merkleroot": "7ad398afad43333619d3a5bc9c34ee8598bdb4dde21b333d9fff3608dd88e589",
    "hashStateRoot": "d547438de7b9b3938981cd6c506cf2c736b015f8ad6f4d2fb4cd40a9e3967b93",
    "hashUTXORoot": "f2b07ae189c2c597229fc86c51dc01e482f2e28490b84a996011dfba72e2f519",
    "prevoutStakeHash": "2219eede5bd835427b047ecf8caa65ead386695c6a4b0a088dedc7010b0772dc",
    "prevoutStakeVoutN": 1,
    "tx": [
      {
        "txid": "7e21019d5caa1ce701d36a37d0ce86796cb66d1c16e426f74eec5db1abd8125a",
        "hash": "eedd29f766eee7a5089f5e9958a794f0e7f92edb3d4e7fa902daa42760c09439",
        "version": 2,
        "size": 148,
        "vsize": 121,
        "weight": 484,
        "locktime": 0,
        "vin": [
          {
            "coinbase": "03a1430400",
            "sequence": 4294967295
          }
        ],
        "vout": [
          {
            "value": 0.00000000,
            "n": 0,
            "scriptPubKey": {
              "asm": "",
              "hex": "",
              "type": "nonstandard"
            }
          },
          {
            "value": 0.00000000,
            "n": 1,
            "scriptPubKey": {
              "asm": "OP_RETURN aa21a9edd290a9ca433d1aaccbb00ff5e02ec29aa901b969ffec11aa70884229863dc411",
              "hex": "6a24aa21a9edd290a9ca433d1aaccbb00ff5e02ec29aa901b969ffec11aa70884229863dc411",
              "type": "nulldata"
            }
          }
        ],
        "hex": "020000000001010000000000000000000000000000000000000000000000000000000000000000ffffffff0503a1430400ffffffff020000000000000000000000000000000000266a24aa21a9edd290a9ca433d1aaccbb00ff5e02ec29aa901b969ffec11aa70884229863dc4110120000000000000000000000000000000000000000000000000000000000000000000000000"
      },
      {
        "txid": "e747419e8edd0ebc5ec29c05b3e679ab554d6ccb234787e8334fc3b97f6b50a1",
        "hash": "e747419e8edd0ebc5ec29c05b3e679ab554d6ccb234787e8334fc3b97f6b50a1",
        "version": 2,
        "size": 266,
        "vsize": 266,
        "weight": 1064,
        "locktime": 0,
        "vin": [
          {
            "txid": "2219eede5bd835427b047ecf8caa65ead386695c6a4b0a088dedc7010b0772dc",
            "vout": 1,
            "scriptSig": {
              "asm": "304402204e587c325804e60de54d45b624861fe43e3afdb00f0364f805fc32acbc59cd34022002672dc4d8aa3b1f921f88f606cb9188f0837370b3be1b5cb24aa4505cf5430a[ALL]",
              "hex": "47304402204e587c325804e60de54d45b624861fe43e3afdb00f0364f805fc32acbc59cd34022002672dc4d8aa3b1f921f88f606cb9188f0837370b3be1b5cb24aa4505cf5430a01"
            },
            "sequence": 4294967295
          }
        ],
        "vout": [
          {
            "value": 0.00000000,
            "n": 0,
            "scriptPubKey": {
              "asm": "",
              "hex": "",
              "type": "nonstandard"
            }
          },
          {
            "value": 819198.37567978,
            "n": 1,
            "scriptPubKey": {
              "asm": "02a66ba825121047db1c71d5c18a310ec572bdd13753dbc696e759944d776885c4 OP_CHECKSIG",
              "hex": "2102a66ba825121047db1c71d5c18a310ec572bdd13753dbc696e759944d776885c4ac",
              "type": "pubkey"
            }
          },
          {
            "value": 0.00000000,
            "n": 2,
            "scriptPubKey": {
              "asm": "4 250000 5000 1286056559 0000000000000000000000000000000000000089 OP_CALL",
              "hex": "01040390d003028813046faaa74c140000000000000000000000000000000000000089c2",
              "type": "call"
            }
          },
          {
            "value": 619.39981498,
            "n": 3,
            "scriptPubKey": {
              "asm": "4 250000 5000 1876445712 0000000000000000000000000000000000000090 OP_CALL",
              "hex": "01040390d00302881304104ad86f140000000000000000000000000000000000000090c2",
              "type": "call"
            }
          }
        ],
        "hex": "0200000001dc72070b01c7ed8d080a4b6a5c6986d3ea65aa8ccf7e047b4235d85bdeee1922010000004847304402204e587c325804e60de54d45b624861fe43e3afdb00f0364f805fc32acbc59cd34022002672dc4d8aa3b1f921f88f606cb9188f0837370b3be1b5cb24aa4505cf5430a01ffffffff04000000000000000000ea7bd172814a0000232102a66ba825121047db1c71d5c18a310ec572bdd13753dbc696e759944d776885c4ac00000000000000002401040390d003028813046faaa74c140000000000000000000000000000000000000089c2ba1ce96b0e0000002401040390d00302881304104ad86f140000000000000000000000000000000000000090c200000000"
      },
      {
        "txid": "d3d4ff7ffb1612a1be42e1aae0d2e626744ea742a1b73889b675dd0af70304c7",
        "hash": "d3d4ff7ffb1612a1be42e1aae0d2e626744ea742a1b73889b675dd0af70304c7",
        "version": 2,
        "size": 133,
        "vsize": 133,
        "weight": 532,
        "locktime": 0,
        "vin": [
          {
            "txid": "893baa36cc7a3aaddf837b700a3568cc770d9ce0ec439d800b461c1b396210b7",
            "vout": 0,
            "scriptSig": {
              "asm": "OP_SPEND",
              "hex": "c3"
            },
            "sequence": 4294967295
          },
          {
            "txid": "e747419e8edd0ebc5ec29c05b3e679ab554d6ccb234787e8334fc3b97f6b50a1",
            "vout": 3,
            "scriptSig": {
              "asm": "OP_SPEND",
              "hex": "c3"
            },
            "sequence": 4294967295
          }
        ],
        "vout": [
          {
            "value": 11239063.29554829,
            "n": 0,
            "scriptPubKey": {
              "asm": "0 0 0 0 0000000000000000000000000000000000000090 OP_CALL",
              "hex": "0100010001000100140000000000000000000000000000000000000090c2",
              "type": "call"
            }
          }
        ],
        "hex": "0200000002b71062391b1c460b809d43ece09c0d77cc68350a707b83dfad3a7acc36aa3b890000000001c3ffffffffa1506b7fb9c34f33e8874723cb6c4d55ab79e6b3059cc25ebc0edd8e9e4147e70300000001c3ffffffff018daf88d52ffe03001e0100010001000100140000000000000000000000000000000000000090c200000000"
      },
      {
        "txid": "985bf0105d1df122b6868277e59dae0098e2c468c79e52a1a777f89e49f76db5",
        "hash": "985bf0105d1df122b6868277e59dae0098e2c468c79e52a1a777f89e49f76db5",
        "version": 1,
        "size": 258,
        "vsize": 258,
        "weight": 1032,
        "locktime": 0,
        "vin": [
          {
            "txid": "4bfb398eb315693b437b65d1de15f302bcda4a6a8f0b6a0f37e64feb27d8fc4a",
            "vout": 0,
            "scriptSig": {
              "asm": "3045022100f672e6a5878d592566eebc0fc6daa16f66e978f8393bdbb46c7b3417e82ae1760220548b52541ca4d1bede828acecb061fa5def711144a114fe12211a08633ad5f38[ALL] 040ffe8778b8412953d25a83635bc52a3d356c4968c0a5ed6add8d5fd00f0f4adf1f35cee9512ac584ab98b80a1f8d298955a13c5d5e348ad7d346999a090588b5",
              "hex": "483045022100f672e6a5878d592566eebc0fc6daa16f66e978f8393bdbb46c7b3417e82ae1760220548b52541ca4d1bede828acecb061fa5def711144a114fe12211a08633ad5f380141040ffe8778b8412953d25a83635bc52a3d356c4968c0a5ed6add8d5fd00f0f4adf1f35cee9512ac584ab98b80a1f8d298955a13c5d5e348ad7d346999a090588b5"
            },
            "sequence": 4294967295
          }
        ],
        "vout": [
          {
            "value": 15.00000000,
            "n": 0,
            "scriptPubKey": {
              "asm": "OP_DUP OP_HASH160 811a6ce0d8ea9a8a7c6fd042df007eb2fc04072b OP_EQUALVERIFY OP_CHECKSIG",
              "hex": "76a914811a6ce0d8ea9a8a7c6fd042df007eb2fc04072b88ac",
              "reqSigs": 1,
              "type": "pubkeyhash",
              "addresses": [
                "MKfo4EoRUt6bxEyxKmd5PawZC4rp5KUuwk"
              ]
            }
          },
          {
            "value": 1895.38600000,
            "n": 1,
            "scriptPubKey": {
              "asm": "OP_DUP OP_HASH160 7564d5bd6fdab83133c222605b9bfb0d126d3991 OP_EQUALVERIFY OP_CHECKSIG",
              "hex": "76a9147564d5bd6fdab83133c222605b9bfb0d126d399188ac",
              "reqSigs": 1,
              "type": "pubkeyhash",
              "addresses": [
                "MJbt61Pd6RCCtxVh8Ro5kbVahndnS7GiCk"
              ]
            }
          }
        ],
        "hex": "01000000014afcd827eb4fe6370f6a0b8f6a4adabc02f315ded1657b433b6915b38e39fb4b000000008b483045022100f672e6a5878d592566eebc0fc6daa16f66e978f8393bdbb46c7b3417e82ae1760220548b52541ca4d1bede828acecb061fa5def711144a114fe12211a08633ad5f380141040ffe8778b8412953d25a83635bc52a3d356c4968c0a5ed6add8d5fd00f0f4adf1f35cee9512ac584ab98b80a1f8d298955a13c5d5e348ad7d346999a090588b5ffffffff02002f6859000000001976a914811a6ce0d8ea9a8a7c6fd042df007eb2fc04072b88ac408461212c0000001976a9147564d5bd6fdab83133c222605b9bfb0d126d399188ac00000000"
      },
      {
        "txid": "2e2371c1247407213be7bf2233b85bebbd0de575d0ab9f304de79f9cbad6e83f",
        "hash": "2e2371c1247407213be7bf2233b85bebbd0de575d0ab9f304de79f9cbad6e83f",
        "version": 2,
        "size": 485,
        "vsize": 485,
        "weight": 1940,
        "locktime": 0,
        "vin": [
          {
            "txid": "01399c2f9c251ffa2c665debfb22354b8370d74eb718606cbb27518f2dead16f",
            "vout": 4,
            "scriptSig": {
              "asm": "3044022009fcf343522acc814230ed0671efae198dee8d811656ede8fe108bf4eac2dcae0220799d342f67bcb3a48b5071b98032fcb4594fbd7ade6fbcbcd0971ce442202870[ALL] 039b0e41eeadd97d5c7213be38d2fe8f58c5f5e7715a543fb16287868f79b74312",
              "hex": "473044022009fcf343522acc814230ed0671efae198dee8d811656ede8fe108bf4eac2dcae0220799d342f67bcb3a48b5071b98032fcb4594fbd7ade6fbcbcd0971ce4422028700121039b0e41eeadd97d5c7213be38d2fe8f58c5f5e7715a543fb16287868f79b74312"
            },
            "sequence": 4294967295
          },
          {
            "txid": "b33ac7083dbd7f5eb688ec9bca680f128b03eb039635390bbd26211ce837ad65",
            "vout": 1,
            "scriptSig": {
              "asm": "304402205f24d926ff4441e4c0ef567f350a29d0af3cd7909bbcde1a54389fac11615b2602206af2fbabdff80ea2261f53515d878f1d0ee7b638808e3cd4aeed47582c6ea800[ALL] 039b0e41eeadd97d5c7213be38d2fe8f58c5f5e7715a543fb16287868f79b74312",
              "hex": "47304402205f24d926ff4441e4c0ef567f350a29d0af3cd7909bbcde1a54389fac11615b2602206af2fbabdff80ea2261f53515d878f1d0ee7b638808e3cd4aeed47582c6ea8000121039b0e41eeadd97d5c7213be38d2fe8f58c5f5e7715a543fb16287868f79b74312"
            },
            "sequence": 4294967295
          },
          {
            "txid": "af45a62cecaf342fc07c608d93d3e5446517f406e7d3199bf8030f52c13cfcfc",
            "vout": 4,
            "scriptSig": {
              "asm": "3044022059ce115fb00f038e3eb6f33ddf0f757b8642191d7fdf5674b105179bf41c32dd02205f36deb15204df32f6c04887db5c9198fb259104d42e839044035be1f83d39b1[ALL] 039b0e41eeadd97d5c7213be38d2fe8f58c5f5e7715a543fb16287868f79b74312",
              "hex": "473044022059ce115fb00f038e3eb6f33ddf0f757b8642191d7fdf5674b105179bf41c32dd02205f36deb15204df32f6c04887db5c9198fb259104d42e839044035be1f83d39b10121039b0e41eeadd97d5c7213be38d2fe8f58c5f5e7715a543fb16287868f79b74312"
            },
            "sequence": 4294967295
          }
        ],
        "vout": [
          {
            "value": 7500013.29745000,
            "n": 0,
            "scriptPubKey": {
              "asm": "OP_DUP OP_HASH160 ad7b7f0265c479ac3dc285fd531c4cd72b30e160 OP_EQUALVERIFY OP_CHECKSIG",
              "hex": "76a914ad7b7f0265c479ac3dc285fd531c4cd72b30e16088ac",
              "reqSigs": 1,
              "type": "pubkeyhash",
              "addresses": [
                "MPiT5H6qpTCMLN3uygsC8kgUJb92STHuke"
              ]
            }
          }
        ],
        "hex": "02000000036fd1ea2d8f5127bb6c6018b74ed770834b3522fbeb5d662cfa1f259c2f9c3901040000006a473044022009fcf343522acc814230ed0671efae198dee8d811656ede8fe108bf4eac2dcae0220799d342f67bcb3a48b5071b98032fcb4594fbd7ade6fbcbcd0971ce4422028700121039b0e41eeadd97d5c7213be38d2fe8f58c5f5e7715a543fb16287868f79b74312ffffffff65ad37e81c2126bd0b39359603eb038b120f68ca9bec88b65e7fbd3d08c73ab3010000006a47304402205f24d926ff4441e4c0ef567f350a29d0af3cd7909bbcde1a54389fac11615b2602206af2fbabdff80ea2261f53515d878f1d0ee7b638808e3cd4aeed47582c6ea8000121039b0e41eeadd97d5c7213be38d2fe8f58c5f5e7715a543fb16287868f79b74312fffffffffcfc3cc1520f03f89b19d3e706f4176544e5d3938d607cc02f34afec2ca645af040000006a473044022059ce115fb00f038e3eb6f33ddf0f757b8642191d7fdf5674b105179bf41c32dd02205f36deb15204df32f6c04887db5c9198fb259104d42e839044035be1f83d39b10121039b0e41eeadd97d5c7213be38d2fe8f58c5f5e7715a543fb16287868f79b74312ffffffff01682cd74a1faa02001976a914ad7b7f0265c479ac3dc285fd531c4cd72b30e16088ac00000000"
      }
    ],
    "time": 1625826720,
    "mediantime": 1625826064,
    "nonce": 0,
    "bits": "1908ec98",
    "difficulty": 481264929.7320366,
    "chainwork": "000000000000000000000000000000000000000000006ee7040492c6bff453de",
    "nTx": 5,
    "previousblockhash": "c5eaf52d89975d122509eedee48e77a4f5bf622d0fcf596e354b0dac083b86b0",
    "nextblockhash": "3bda551d5e3e31cca232088632f3c922851f22f8d2b9589ff004270ef0e83568",
    "flags": "proof-of-stake",
    "proofhash": "00009453412711f6dcd499af16c456adba188be75f36c2158ad1be1c2a42c0e7",
    "modifier": "a8b914738347125aff2737f21ec7b718493eaa425f474ba9fc4db83ebee59659",
    "signature": "304402200ce0a5c8fa8a183c0c341c072ccc972cbb5292b1b6061d2ba007e9d67dd4357c022025cd629e7ef650617924317e315411fda73f9fabe829088c2d1ee91b637071c2"
  },
  "error": null,
  "id": "curltest"
}
