HTTP/1.1 200 OK
Server: openresty/1.19.3.1
Date: Wed, 14 Jul 2021 09:17:34 GMT
Content-Type: application/json
Content-Length: 8692
Connection: close

{
  "result": {
    "hash": "870e133834ca675c092c91afe1815b19599ff9b984be24f1d02a921026157fae",
    "confirmations": 85,
    "strippedsize": 1282,
    "size": 1318,
    "weight": 5164,
    "height": 284066,
    "version": 536870912,
    "versionHex": "20000000",
    "merkleroot": "d4ed3d8e615962c444dfcc40a26fa0c0d47e7baa80b983b8c579e509a7a9b22b",
    "hashStateRoot": "e65e68720149b8c83b34273a487773b117919cdc968396cc465712eb88e0130a",
    "hashUTXORoot": "5075e19ecce47fff67ae637a861404f21c9f908c6afd5fcb4bfce12d02f61c34",
    "prevoutStakeHash": "181ea311b8bda84dc3721389a028113417f169066dd5d5e930f2f202a9fd25d7",
    "prevoutStakeVoutN": 1,
    "tx": [
      {
        "txid": "b5c01f11f41eb765881d3b07581ffd773f23f2dca0a5a5d14ef59e3fe4438d01",
        "hash": "3b00f3ed53ff7f81bdb15fda1f67eeb26242aeb7c2230247fcfe26d887d52df8",
        "version": 2,
        "size": 148,
        "vsize": 121,
        "weight": 484,
        "locktime": 0,
        "vin": [
          {
            "coinbase": "03a2550400",
            "sequence": 4294967295
          }
        ],
        "vout": [
          {
            "value": 0.00000000,
            "n": 0,
            "scriptPubKey": {
              "asm": "",
              "hex": "",
              "type": "nonstandard"
            }
          },
          {
            "value": 0.00000000,
            "n": 1,
            "scriptPubKey": {
              "asm": "OP_RETURN aa21a9edd39f8858d4997844fdc033d7aedf96d56eb56c6af3f5bd118beaf3c1e748ff68",
              "hex": "6a24aa21a9edd39f8858d4997844fdc033d7aedf96d56eb56c6af3f5bd118beaf3c1e748ff68",
              "type": "nulldata"
            }
          }
        ],
        "hex": "020000000001010000000000000000000000000000000000000000000000000000000000000000ffffffff0503a2550400ffffffff020000000000000000000000000000000000266a24aa21a9edd39f8858d4997844fdc033d7aedf96d56eb56c6af3f5bd118beaf3c1e748ff680120000000000000000000000000000000000000000000000000000000000000000000000000"
      },
      {
        "txid": "0b338b9c2916821fd5eb26fe58c596c06e7065fcc1d8bc7dc2c8481c37275a90",
        "hash": "0b338b9c2916821fd5eb26fe58c596c06e7065fcc1d8bc7dc2c8481c37275a90",
        "version": 2,
        "size": 266,
        "vsize": 266,
        "weight": 1064,
        "locktime": 0,
        "vin": [
          {
            "txid": "181ea311b8bda84dc3721389a028113417f169066dd5d5e930f2f202a9fd25d7",
            "vout": 1,
            "scriptSig": {
              "asm": "304402202d8c105e1a352319bea6c26c0e31cfb4dd7bcccb70849f22e1bfa087c67e8a2202204cafae82164aa4ac5e45bc83f5e9e26a889135d4c3b7c33c066938468b4dafed[ALL]",
              "hex": "47304402202d8c105e1a352319bea6c26c0e31cfb4dd7bcccb70849f22e1bfa087c67e8a2202204cafae82164aa4ac5e45bc83f5e9e26a889135d4c3b7c33c066938468b4dafed01"
            },
            "sequence": 4294967295
          }
        ],
        "vout": [
          {
            "value": 0.00000000,
            "n": 0,
            "scriptPubKey": {
              "asm": "",
              "hex": "",
              "type": "nonstandard"
            }
          },
          {
            "value": 730321.42287803,
            "n": 1,
            "scriptPubKey": {
              "asm": "03a1cf3bd4ba74bf3ce1fe492461d6a1f99e3ab67b8867abb780cda927c1808e55 OP_CHECKSIG",
              "hex": "2103a1cf3bd4ba74bf3ce1fe492461d6a1f99e3ab67b8867abb780cda927c1808e55ac",
              "type": "pubkey"
            }
          },
          {
            "value": 0.00000000,
            "n": 2,
            "scriptPubKey": {
              "asm": "4 250000 5000 1286056559 0000000000000000000000000000000000000089 OP_CALL",
              "hex": "01040390d003028813046faaa74c140000000000000000000000000000000000000089c2",
              "type": "call"
            }
          },
          {
            "value": 765.33872147,
            "n": 3,
            "scriptPubKey": {
              "asm": "4 250000 5000 1876445712 0000000000000000000000000000000000000090 OP_CALL",
              "hex": "01040390d00302881304104ad86f140000000000000000000000000000000000000090c2",
              "type": "call"
            }
          }
        ],
        "hex": "0200000001d725fda902f2f230e9d5d56d0669f117341128a0891372c34da8bdb811a31e18010000004847304402202d8c105e1a352319bea6c26c0e31cfb4dd7bcccb70849f22e1bfa087c67e8a2202204cafae82164aa4ac5e45bc83f5e9e26a889135d4c3b7c33c066938468b4dafed01ffffffff04000000000000000000bbf3e51e6c420000232103a1cf3bd4ba74bf3ce1fe492461d6a1f99e3ab67b8867abb780cda927c1808e55ac00000000000000002401040390d003028813046faaa74c140000000000000000000000000000000000000089c21336c6d1110000002401040390d00302881304104ad86f140000000000000000000000000000000000000090c200000000"
      },
      {
        "txid": "99dcdce8b56e130ef619367d43e2d3962d50942bbdee80b773ff65f63cdd6e99",
        "hash": "99dcdce8b56e130ef619367d43e2d3962d50942bbdee80b773ff65f63cdd6e99",
        "version": 2,
        "size": 133,
        "vsize": 133,
        "weight": 532,
        "locktime": 0,
        "vin": [
          {
            "txid": "740bd488cdfa4e2fccd2ae51a9f7e49b3a726147a5c5beda4deb9c1972ec7cb1",
            "vout": 0,
            "scriptSig": {
              "asm": "OP_SPEND",
              "hex": "c3"
            },
            "sequence": 4294967295
          },
          {
            "txid": "0b338b9c2916821fd5eb26fe58c596c06e7065fcc1d8bc7dc2c8481c37275a90",
            "vout": 3,
            "scriptSig": {
              "asm": "OP_SPEND",
              "hex": "c3"
            },
            "sequence": 4294967295
          }
        ],
        "vout": [
          {
            "value": 14382185.69051638,
            "n": 0,
            "scriptPubKey": {
              "asm": "0 0 0 0 0000000000000000000000000000000000000090 OP_CALL",
              "hex": "0100010001000100140000000000000000000000000000000000000090c2",
              "type": "call"
            }
          }
        ],
        "hex": "0200000002b17cec72199ceb4ddabec5a54761723a9be4f7a951aed2cc2f4efacd88d40b740000000001c3ffffffff905a27371c48c8c27dbcd8c1fc65706ec096c558fe26ebd51f8216299c8b330b0300000001c3ffffffff01f6edea5a0d1c05001e0100010001000100140000000000000000000000000000000000000090c200000000"
      },
      {
        "txid": "bb17d37b3c27b669e06ff943497c3950d39ea2442fb3e201e1738f83f3cc5677",
        "hash": "bb17d37b3c27b669e06ff943497c3950d39ea2442fb3e201e1738f83f3cc5677",
        "version": 2,
        "size": 519,
        "vsize": 519,
        "weight": 2076,
        "locktime": 284065,
        "vin": [
          {
            "txid": "8c2ffdeec0ddb9be9a56c2ab7a49a60d8a8763e7f3dc67e4832945f9c6c9f4fd",
            "vout": 0,
            "scriptSig": {
              "asm": "304402207a32067da44758530fa1a5bb076df9ed6dc445f8a2136461ec70b8fd0586ac7402207ec8364de517a0e1ea24f549a9e777a462c1e12492581d4abcb36a864de24c3d[ALL] 03a467a5f014284dd8812470f493f6807a8b265d9640741eb1eb0e222a7fafe515",
              "hex": "47304402207a32067da44758530fa1a5bb076df9ed6dc445f8a2136461ec70b8fd0586ac7402207ec8364de517a0e1ea24f549a9e777a462c1e12492581d4abcb36a864de24c3d012103a467a5f014284dd8812470f493f6807a8b265d9640741eb1eb0e222a7fafe515"
            },
            "sequence": 4294967294
          },
          {
            "txid": "2e4f8301cb6fa998f6629a2b2546436371e0888cc2659ecc00e5706f8b660ca3",
            "vout": 0,
            "scriptSig": {
              "asm": "3044022007321fa20b2fcb88fabb09f0f85a9050d73d2c02c0d7d8aec291e5c96892ba8002207fba28f4465272302133d827e98e07be2741c67815a4afb745a33ac482e7defe[ALL] 036db5fa4c6314f32ac704a5f2f30e8754f3cb85e8453052e9188c3a09b3b565d2",
              "hex": "473044022007321fa20b2fcb88fabb09f0f85a9050d73d2c02c0d7d8aec291e5c96892ba8002207fba28f4465272302133d827e98e07be2741c67815a4afb745a33ac482e7defe0121036db5fa4c6314f32ac704a5f2f30e8754f3cb85e8453052e9188c3a09b3b565d2"
            },
            "sequence": 4294967294
          },
          {
            "txid": "ac2dc2ce4dc4f43b7832fd806484eadcd29b02ab25458debb6f81f32c76cba73",
            "vout": 0,
            "scriptSig": {
              "asm": "30440220309ee900a37955d41e4ed2f020dac02d19c68345b8b84a343d66d1aecab8e3370220299caecca96b7252111ded7d68dba6d2a31f08af0c1b6f13bcd54427c1377a3b[ALL] 02b7ca83f214cc52301e8f6a60e0c5d7bad5818b2e9ff06211c72050a918744057",
              "hex": "4730440220309ee900a37955d41e4ed2f020dac02d19c68345b8b84a343d66d1aecab8e3370220299caecca96b7252111ded7d68dba6d2a31f08af0c1b6f13bcd54427c1377a3b012102b7ca83f214cc52301e8f6a60e0c5d7bad5818b2e9ff06211c72050a918744057"
            },
            "sequence": 4294967294
          }
        ],
        "vout": [
          {
            "value": 1665.04554272,
            "n": 0,
            "scriptPubKey": {
              "asm": "OP_DUP OP_HASH160 56c556720cc1bc16c6b338b41c08c306059c8b86 OP_EQUALVERIFY OP_CHECKSIG",
              "hex": "76a91456c556720cc1bc16c6b338b41c08c306059c8b8688ac",
              "reqSigs": 1,
              "type": "pubkeyhash",
              "addresses": [
                "MFoxkBxqh1mu7EcFGCrkvhmujc3FPERmks"
              ]
            }
          },
          {
            "value": 807567.15961516,
            "n": 1,
            "scriptPubKey": {
              "asm": "OP_DUP OP_HASH160 196bb2583cf486e4e50d34fef9fa932ca340d85a OP_EQUALVERIFY OP_CHECKSIG",
              "hex": "76a914196bb2583cf486e4e50d34fef9fa932ca340d85a88ac",
              "reqSigs": 1,
              "type": "pubkeyhash",
              "addresses": [
                "MADa97yGuHmrs8MiETgJjGGnmGabYL34C9"
              ]
            }
          }
        ],
        "hex": "0200000003fdf4c9c6f9452983e467dcf3e763878a0da6497aabc2569abeb9ddc0eefd2f8c000000006a47304402207a32067da44758530fa1a5bb076df9ed6dc445f8a2136461ec70b8fd0586ac7402207ec8364de517a0e1ea24f549a9e777a462c1e12492581d4abcb36a864de24c3d012103a467a5f014284dd8812470f493f6807a8b265d9640741eb1eb0e222a7fafe515feffffffa30c668b6f70e500cc9e65c28c88e071634346252b9a62f698a96fcb01834f2e000000006a473044022007321fa20b2fcb88fabb09f0f85a9050d73d2c02c0d7d8aec291e5c96892ba8002207fba28f4465272302133d827e98e07be2741c67815a4afb745a33ac482e7defe0121036db5fa4c6314f32ac704a5f2f30e8754f3cb85e8453052e9188c3a09b3b565d2feffffff73ba6cc7321ff8b6eb8d4525ab029bd2dcea846480fd32783bf4c44dcec22dac000000006a4730440220309ee900a37955d41e4ed2f020dac02d19c68345b8b84a343d66d1aecab8e3370220299caecca96b7252111ded7d68dba6d2a31f08af0c1b6f13bcd54427c1377a3b012102b7ca83f214cc52301e8f6a60e0c5d7bad5818b2e9ff06211c72050a918744057feffffff0220df71c4260000001976a91456c556720cc1bc16c6b338b41c08c306059c8b8688acac3c5ea3724900001976a914196bb2583cf486e4e50d34fef9fa932ca340d85a88aca1550400"
      }
    ],
    "time": 1626245696,
    "mediantime": 1626245360,
    "nonce": 0,
    "bits": "190744eb",
    "difficulty": 590834668.1710765,
    "chainwork": "0000000000000000000000000000000000000000000070d856e1643981361219",
    "nTx": 4,
    "previousblockhash": "fe96d0a61ab795b3834cf5d8e1429112ecad6385919c6a9f89554bd1e32aa252",
    "nextblockhash": "b356081fc4f1f81bb52f78c494d6b62f3ffbd02806eaafc9fd60c33cb8a30a13",
    "flags": "proof-of-stake",
    "proofhash": "00008a4c2f2c51685ee8b266ed94c4fab505834ff440cb7f2f72f223bc9f6643",
    "modifier": "ae540c281cc69d3eb449ed6e2b2d334da259cbca5a39eec13b410f6f37c0df7f",
    "signature": "3044022001a1081cc9edff5dd070c3c27a4bb0afe1b216e3f0c497c69a15512f1dc7416402203473ab241cbfc80ddfbbeae5a57e07639d134ed58c4fe91e2ad6082700cf1c7d"
  },
  "error": null,
  "id": "curltest"
}
