{
    "result": {
        "txid": "42ae05ededf867eb7bf2facc398ff71ddc263065666e7abdf49400c67dc96506",
        "version": 1,
        "type": 0,
        "size": 1908,
        "locktime": 0,
        "vin": [
            {
                "txid": "4f922a29626eff5032f1935fa136ae4068c5e71901333d988cf7ba6f978be2f9",
                "vout": 0,
                "scriptSig": {
                    "asm": "3044022059659b30d7e625c4f6d5408a105e2037d5d9d9ad161e480724e6ef28325c0e49022078597f3dec93f11599cbcd6df42e6ae3f50b97ab6d5ab488f0c526418254b9e4[ALL] 041608d0a192bdec29729964dc2c8187e53366a77670fd5d1d686fa29206215f5be3e2360998fc95d2997aa242ae371ddefcfc6b7a31824f8a6ebc1fb4ef1df359",
                    "hex": "473044022059659b30d7e625c4f6d5408a105e2037d5d9d9ad161e480724e6ef28325c0e49022078597f3dec93f11599cbcd6df42e6ae3f50b97ab6d5ab488f0c526418254b9e40141041608d0a192bdec29729964dc2c8187e53366a77670fd5d1d686fa29206215f5be3e2360998fc95d2997aa242ae371ddefcfc6b7a31824f8a6ebc1fb4ef1df359"
                },
                "sequence": 4294967295
            },
            {
                "txid": "3edcf6e75201effba155d1878ce92d2a952956cc57b5f742304b702c33fc43df",
                "vout": 1,
                "scriptSig": {
                    "asm": "3045022100df3b24be08fe4ef7c0f3fda5b47dae7a610357b777c7371e074321adac706a5d022022d44a35fe19d0d03e08ea6c56dfce6023b34cb7c536b6527b656c093833e81f[ALL] 04114d9b11adf6f1909213e8a1d3ecfa3292727390d866b519d21432168bc181c194f057d690c06607bc3b1ef893c6a3817c3092510fc643469f6c9bf9625d03fc",
                    "hex": "483045022100df3b24be08fe4ef7c0f3fda5b47dae7a610357b777c7371e074321adac706a5d022022d44a35fe19d0d03e08ea6c56dfce6023b34cb7c536b6527b656c093833e81f014104114d9b11adf6f1909213e8a1d3ecfa3292727390d866b519d21432168bc181c194f057d690c06607bc3b1ef893c6a3817c3092510fc643469f6c9bf9625d03fc"
                },
                "sequence": 4294967295
            },
            {
                "txid": "3e2af4680bde5e94c97a23d37f2b8702701dfd10328063269e4004bf60556e44",
                "vout": 0,
                "scriptSig": {
                    "asm": "3045022100d13519f93df4702aca4f07c102d1c93f0840eb84327d20fdb0c7487807a9f20402206655d9c1b1a2885a1413f702a6206adbc0a7b889c3608bcbf87f12cd4a71d39b[ALL] 04114d9b11adf6f1909213e8a1d3ecfa3292727390d866b519d21432168bc181c194f057d690c06607bc3b1ef893c6a3817c3092510fc643469f6c9bf9625d03fc",
                    "hex": "483045022100d13519f93df4702aca4f07c102d1c93f0840eb84327d20fdb0c7487807a9f20402206655d9c1b1a2885a1413f702a6206adbc0a7b889c3608bcbf87f12cd4a71d39b014104114d9b11adf6f1909213e8a1d3ecfa3292727390d866b519d21432168bc181c194f057d690c06607bc3b1ef893c6a3817c3092510fc643469f6c9bf9625d03fc"
                },
                "sequence": 4294967295
            },
            {
                "txid": "b0d7b5a1d77a268eae1af25d6f1a4f753913a4f0204f5e166af0f5b651fc7f9c",
                "vout": 0,
                "scriptSig": {
                    "asm": "3045022100e99fc26fd1f345ad93cf6402528e9194c22a4f4338e68d47ab89102c475f56cc02200923fadf1767ac50572cedc0fedd38caa45b7ead3634c8ee01d808ae0cc7f65b[ALL] 042b3a31ba988b20ec465bcc9b841df6c011295f36c410b1361595007b39cd14ba7a3c5881f0124fe22c1c2764d70e06bc184151c3dc07798023c23ff6c4e6cab0",
                    "hex": "483045022100e99fc26fd1f345ad93cf6402528e9194c22a4f4338e68d47ab89102c475f56cc02200923fadf1767ac50572cedc0fedd38caa45b7ead3634c8ee01d808ae0cc7f65b0141042b3a31ba988b20ec465bcc9b841df6c011295f36c410b1361595007b39cd14ba7a3c5881f0124fe22c1c2764d70e06bc184151c3dc07798023c23ff6c4e6cab0"
                },
                "sequence": 4294967295
            },
            {
                "txid": "78fb086d6cd7540ef00e654e64694192e7dea1b7b4bad0c67b78c91a7e0c845b",
                "vout": 0,
                "scriptSig": {
                    "asm": "304502210080d3edb133501bfb1315629472ef9985f0357cb9e979ab96efa04da4bbfcdbfb022053359f971995b5cab956cd2009f8dff7c19acaf8997db564deb513ba4dfbb6d0[ALL] 040b19c6d9685f5396b594c3ee74dfbd4292157315947503f59a8f387d99c786a9aa549cd6f61c201be6b09f79fc4f03d8409a427f371cacbfc084051cf16d5bc8",
                    "hex": "48304502210080d3edb133501bfb1315629472ef9985f0357cb9e979ab96efa04da4bbfcdbfb022053359f971995b5cab956cd2009f8dff7c19acaf8997db564deb513ba4dfbb6d00141040b19c6d9685f5396b594c3ee74dfbd4292157315947503f59a8f387d99c786a9aa549cd6f61c201be6b09f79fc4f03d8409a427f371cacbfc084051cf16d5bc8"
                },
                "sequence": 4294967295
            },
            {
                "txid": "bda34e751fdd7758ba115ad8c93d80ffe0d66b381edb84a63eb129da3451ac5b",
                "vout": 0,
                "scriptSig": {
                    "asm": "3044022047252181dd57bab615cd591bb360b5b0536225cc98f87f3c908d3821fed112e902205b91933bade60cfc6ebf77abd2abddf2bd3ebaae64ddab16a157ebf8ca317054[ALL] 043878f0ce4ff2c75d71532857a89424186857d70f2ad63ecf6260b84714f57b01514a8986dc9a850255d3f775f7431854e485b3e0caec6124139ce4acf242d774",
                    "hex": "473044022047252181dd57bab615cd591bb360b5b0536225cc98f87f3c908d3821fed112e902205b91933bade60cfc6ebf77abd2abddf2bd3ebaae64ddab16a157ebf8ca3170540141043878f0ce4ff2c75d71532857a89424186857d70f2ad63ecf6260b84714f57b01514a8986dc9a850255d3f775f7431854e485b3e0caec6124139ce4acf242d774"
                },
                "sequence": 4294967295
            },
            {
                "txid": "3d587d648d85e885f5e0e7c1c0307babf8da5b13ac4743dd5404a4dd4beb7ba6",
                "vout": 0,
                "scriptSig": {
                    "asm": "3045022100b2ef543abf078694c9e5c17f2cc2ea1b9012d9986f4ba1ce84a978e624bb3a6102204767f9cfc84541fecd1ff7d66e5981a37028ff043e8799699d228a7ab1a184a1[ALL] 0443e83c91f5b08513349e27f4fb98647b5dd7245d6e7e2b90576cf91b382e1560ee0f1378d0c5b134454bf6b498434e3d32bd8f763b7846996d463d56b4808f07",
                    "hex": "483045022100b2ef543abf078694c9e5c17f2cc2ea1b9012d9986f4ba1ce84a978e624bb3a6102204767f9cfc84541fecd1ff7d66e5981a37028ff043e8799699d228a7ab1a184a101410443e83c91f5b08513349e27f4fb98647b5dd7245d6e7e2b90576cf91b382e1560ee0f1378d0c5b134454bf6b498434e3d32bd8f763b7846996d463d56b4808f07"
                },
                "sequence": 4294967295
            },
            {
                "txid": "9910d42cacaf421852b188286909cc186f4504827a075b30a60b55eadfe3ee2e",
                "vout": 0,
                "scriptSig": {
                    "asm": "3045022100d56c7a0a7e4ab056fe7ebb38b88550dd6cc96dae291bd11a34b551d0cc86019a02201d0148d806d076849855c081dbdabace23a300a1b22925aaabe957ac3c61ecae[ALL] 043878f0ce4ff2c75d71532857a89424186857d70f2ad63ecf6260b84714f57b01514a8986dc9a850255d3f775f7431854e485b3e0caec6124139ce4acf242d774",
                    "hex": "483045022100d56c7a0a7e4ab056fe7ebb38b88550dd6cc96dae291bd11a34b551d0cc86019a02201d0148d806d076849855c081dbdabace23a300a1b22925aaabe957ac3c61ecae0141043878f0ce4ff2c75d71532857a89424186857d70f2ad63ecf6260b84714f57b01514a8986dc9a850255d3f775f7431854e485b3e0caec6124139ce4acf242d774"
                },
                "sequence": 4294967295
            },
            {
                "txid": "9bc3bbdbabc45695f7ca61ab84efa2dca0040b5c6c9d8e18226bffa66fa9e66c",
                "vout": 0,
                "scriptSig": {
                    "asm": "304402202ac7b04d1af3794b58ccea58f8f293adc7c028e3a8ba99fc2f897f0002a08ea902203a6857e67fa8d539a39b33a79dca574ebf6b8fd6dc39309f85235c821282c40a[ALL] 043878f0ce4ff2c75d71532857a89424186857d70f2ad63ecf6260b84714f57b01514a8986dc9a850255d3f775f7431854e485b3e0caec6124139ce4acf242d774",
                    "hex": "47304402202ac7b04d1af3794b58ccea58f8f293adc7c028e3a8ba99fc2f897f0002a08ea902203a6857e67fa8d539a39b33a79dca574ebf6b8fd6dc39309f85235c821282c40a0141043878f0ce4ff2c75d71532857a89424186857d70f2ad63ecf6260b84714f57b01514a8986dc9a850255d3f775f7431854e485b3e0caec6124139ce4acf242d774"
                },
                "sequence": 4294967295
            },
            {
                "txid": "b6e83187ebefebf3ca01e0f49338f17fc71069a6adcf321b962d89496d8cf287",
                "vout": 0,
                "scriptSig": {
                    "asm": "30440220306cd0eb52c54f5c4d77eabb6eeef93a110dabcd59dfbb6f5964b7a680c1b34e022015b849c6d4356783de7c4d307c304332f30e6c2a4b20135632c198c7b835f289[ALL] 043878f0ce4ff2c75d71532857a89424186857d70f2ad63ecf6260b84714f57b01514a8986dc9a850255d3f775f7431854e485b3e0caec6124139ce4acf242d774",
                    "hex": "4730440220306cd0eb52c54f5c4d77eabb6eeef93a110dabcd59dfbb6f5964b7a680c1b34e022015b849c6d4356783de7c4d307c304332f30e6c2a4b20135632c198c7b835f2890141043878f0ce4ff2c75d71532857a89424186857d70f2ad63ecf6260b84714f57b01514a8986dc9a850255d3f775f7431854e485b3e0caec6124139ce4acf242d774"
                },
                "sequence": 4294967295
            }
        ],
        "vout": [
            {
                "value": 0.02,
                "valueSat": 2000000,
                "n": 0,
                "scriptPubKey": {
                    "asm": "OP_DUP OP_HASH160 e5113fff8ee5d99f044e17aecba069a41beab17b OP_EQUALVERIFY OP_CHECKSIG",
                    "hex": "76a914e5113fff8ee5d99f044e17aecba069a41beab17b88ac",
                    "reqSigs": 1,
                    "type": "pubkeyhash",
                    "addresses": [
                        "Xwa3EjUe5gCxpE3YDxe2TZojU4c78DzzZt"
                    ]
                }
            },
            {
                "value": 0.001,
                "valueSat": 100000,
                "n": 1,
                "scriptPubKey": {
                    "asm": "OP_DUP OP_HASH160 e5113fff8ee5d99f044e17aecba069a41beab17b OP_EQUALVERIFY OP_CHECKSIG",
                    "hex": "76a914e5113fff8ee5d99f044e17aecba069a41beab17b88ac",
                    "reqSigs": 1,
                    "type": "pubkeyhash",
                    "addresses": [
                        "Xwa3EjUe5gCxpE3YDxe2TZojU4c78DzzZt"
                    ]
                }
            },
            {
                "value": 1.79994714,
                "valueSat": 179994714,
                "n": 2,
                "scriptPubKey": {
                    "asm": "OP_DUP OP_HASH160 c4c945dbcbeced90b60f37004004bf0180ae2d6d OP_EQUALVERIFY OP_CHECKSIG",
                    "hex": "76a914c4c945dbcbeced90b60f37004004bf0180ae2d6d88ac",
                    "reqSigs": 1,
                    "type": "pubkeyhash",
                    "addresses": [
                        "XtdMPY8DxUntLcgqRnpHDZ3bs1fLPwiX88"
                    ]
                }
            }
        ],
        "hex": "010000000af9e28b976fbaf78c983d330119e7c56840ae36a15f93f13250ff6e62292a924f000000008a473044022059659b30d7e625c4f6d5408a105e2037d5d9d9ad161e480724e6ef28325c0e49022078597f3dec93f11599cbcd6df42e6ae3f50b97ab6d5ab488f0c526418254b9e40141041608d0a192bdec29729964dc2c8187e53366a77670fd5d1d686fa29206215f5be3e2360998fc95d2997aa242ae371ddefcfc6b7a31824f8a6ebc1fb4ef1df359ffffffffdf43fc332c704b3042f7b557cc5629952a2de98c87d155a1fbef0152e7f6dc3e010000008b483045022100df3b24be08fe4ef7c0f3fda5b47dae7a610357b777c7371e074321adac706a5d022022d44a35fe19d0d03e08ea6c56dfce6023b34cb7c536b6527b656c093833e81f014104114d9b11adf6f1909213e8a1d3ecfa3292727390d866b519d21432168bc181c194f057d690c06607bc3b1ef893c6a3817c3092510fc643469f6c9bf9625d03fcffffffff446e5560bf04409e2663803210fd1d7002872b7fd3237ac9945ede0b68f42a3e000000008b483045022100d13519f93df4702aca4f07c102d1c93f0840eb84327d20fdb0c7487807a9f20402206655d9c1b1a2885a1413f702a6206adbc0a7b889c3608bcbf87f12cd4a71d39b014104114d9b11adf6f1909213e8a1d3ecfa3292727390d866b519d21432168bc181c194f057d690c06607bc3b1ef893c6a3817c3092510fc643469f6c9bf9625d03fcffffffff9c7ffc51b6f5f06a165e4f20f0a41339754f1a6f5df21aae8e267ad7a1b5d7b0000000008b483045022100e99fc26fd1f345ad93cf6402528e9194c22a4f4338e68d47ab89102c475f56cc02200923fadf1767ac50572cedc0fedd38caa45b7ead3634c8ee01d808ae0cc7f65b0141042b3a31ba988b20ec465bcc9b841df6c011295f36c410b1361595007b39cd14ba7a3c5881f0124fe22c1c2764d70e06bc184151c3dc07798023c23ff6c4e6cab0ffffffff5b840c7e1ac9787bc6d0bab4b7a1dee7924169644e650ef00e54d76c6d08fb78000000008b48304502210080d3edb133501bfb1315629472ef9985f0357cb9e979ab96efa04da4bbfcdbfb022053359f971995b5cab956cd2009f8dff7c19acaf8997db564deb513ba4dfbb6d00141040b19c6d9685f5396b594c3ee74dfbd4292157315947503f59a8f387d99c786a9aa549cd6f61c201be6b09f79fc4f03d8409a427f371cacbfc084051cf16d5bc8ffffffff5bac5134da29b13ea684db1e386bd6e0ff803dc9d85a11ba5877dd1f754ea3bd000000008a473044022047252181dd57bab615cd591bb360b5b0536225cc98f87f3c908d3821fed112e902205b91933bade60cfc6ebf77abd2abddf2bd3ebaae64ddab16a157ebf8ca3170540141043878f0ce4ff2c75d71532857a89424186857d70f2ad63ecf6260b84714f57b01514a8986dc9a850255d3f775f7431854e485b3e0caec6124139ce4acf242d774ffffffffa67beb4bdda40454dd4347ac135bdaf8ab7b30c0c1e7e0f585e8858d647d583d000000008b483045022100b2ef543abf078694c9e5c17f2cc2ea1b9012d9986f4ba1ce84a978e624bb3a6102204767f9cfc84541fecd1ff7d66e5981a37028ff043e8799699d228a7ab1a184a101410443e83c91f5b08513349e27f4fb98647b5dd7245d6e7e2b90576cf91b382e1560ee0f1378d0c5b134454bf6b498434e3d32bd8f763b7846996d463d56b4808f07ffffffff2eeee3dfea550ba6305b077a8204456f18cc09692888b1521842afac2cd41099000000008b483045022100d56c7a0a7e4ab056fe7ebb38b88550dd6cc96dae291bd11a34b551d0cc86019a02201d0148d806d076849855c081dbdabace23a300a1b22925aaabe957ac3c61ecae0141043878f0ce4ff2c75d71532857a89424186857d70f2ad63ecf6260b84714f57b01514a8986dc9a850255d3f775f7431854e485b3e0caec6124139ce4acf242d774ffffffff6ce6a96fa6ff6b22188e9d6c5c0b04a0dca2ef84ab61caf79556c4abdbbbc39b000000008a47304402202ac7b04d1af3794b58ccea58f8f293adc7c028e3a8ba99fc2f897f0002a08ea902203a6857e67fa8d539a39b33a79dca574ebf6b8fd6dc39309f85235c821282c40a0141043878f0ce4ff2c75d71532857a89424186857d70f2ad63ecf6260b84714f57b01514a8986dc9a850255d3f775f7431854e485b3e0caec6124139ce4acf242d774ffffffff87f28c6d49892d961b32cfada66910c77ff13893f4e001caf3ebefeb8731e8b6000000008a4730440220306cd0eb52c54f5c4d77eabb6eeef93a110dabcd59dfbb6f5964b7a680c1b34e022015b849c6d4356783de7c4d307c304332f30e6c2a4b20135632c198c7b835f2890141043878f0ce4ff2c75d71532857a89424186857d70f2ad63ecf6260b84714f57b01514a8986dc9a850255d3f775f7431854e485b3e0caec6124139ce4acf242d774ffffffff0380841e00000000001976a914e5113fff8ee5d99f044e17aecba069a41beab17b88aca0860100000000001976a914e5113fff8ee5d99f044e17aecba069a41beab17b88ac5a80ba0a000000001976a914c4c945dbcbeced90b60f37004004bf0180ae2d6d88ac00000000",
        "blockhash": "00000000000000084432fbc23ba6977ba6ba29b215bdd7feb5377890a85ef83a",
        "height": 1477084,
        "confirmations": 18,
        "time": 1621993417,
        "blocktime": 1621993417,
        "instantlock": true,
        "instantlock_internal": false,
        "chainlock": true
    },
    "error": null,
    "id": "curl"
}